:02000000412994
:10000600103083120313FD00FD0B072800000800C3
:0400160000000800DE
:10001A00083083120313FC002330FD00FD0B132864
:06002A00FC0B1328080086
:1000300083160313A41B1F28831286112128831201
:1000400086158316241B272883120611292883125C
:1000500006158316A41A2F288312861031288312BE
:1000600086148316241A372883120610392883121F
:1000700006146E183D2805143E28051085140B2023
:1000800085108316A41947288312861149288312E4
:100090008615831624194F288312061151288312BE
:1000A00006158316A4185728831286105928831220
:1000B0008614831624185F28831206106128831281
:1000C00006146E18652805146628051085140B2083
:0E00D00085106E1C6D280D206E280320080080
:1000DE00831203136E1083162308A40018206E14C7
:0200EE00080008
:0E00F000831203136B088A006A08820008005E
:1000FE0083160313A001200883126F0784000008E3
:10010E00031995288316200883126F0784000008B0
:0E011E008316A3006F208316A00A8228080013
:10012C00A828803083160313A000BB28C030A00081
:10013C00BB289430A000BB28D430A000BB28803052
:10014C00A000BB28831603132008013A0319972833
:10015C002008023A03199C282008033A03199F2807
:10016C002008043A0319A228A5282103F00020082E
:10017C00F0077008A0007008A40018206E10EF01A2
:10018C006F0883162207840000080319D7288312EE
:10019C006F088316220784000008A3006F20EF0A63
:0801AC00C62883126E1408003E
:1001B4008316031385100510061086100611861188
:1001C40083128510051086110611861006100D2065
:1001D4000D200D208614061485140B2085100D2087
:1001E40085140B2085100D2085140B2085100D20FF
:1001F400061085140B2085100D2085140B20851006
:100204008610861585140B2085100D208611061482
:1002140085140B208510061085140B2085100D20E5
:1002240085140B208510061485140B2085100D20D1
:10023400061085140B2085108615061586140614E1
:0C02440085140B2085100D206E1408009E
:10025000823083120313FC00DD30FD00FD0B2E29DC
:0A026000FC0B2E290000000008002E
:10026A0078208A110A128000840AEA0A0319EB0A22
:08027A00F003031D3529080003
:100282005E22DA2001308316A40018200C30831677
:10029200A400182001308316A0000230A1005130C2
:1002A200A20096200630FB001330FC00AD30FD00AA
:1002B200FD0B5929FC0B5929FB0B592900000000A1
:1002C20002308316A0000530A1006030A200962003
:1002D2000630FB001330FC00AD30FD00FD0B6F2932
:1002E200FC0B6F29FB0B6F29000000000130831605
:1002F200A40018200C308316A40018200330FB0041
:100302008A30FC005530FD00FD0B8529FC0B852948
:10031200FB0B852900000000C0308316A4001820C2
:100322004030EF007F20063083120313FB001330AE
:10033200FC00AD30FD00FD0B9C29FC0B9C29FB0B46
:100342009C290000000001308316A400182001300F
:100352008316A0001030A1002030A2009620823027
:10036200FC00DD30FD00FD0BB429FC0BB4290000BC
:100372000000EC01ED0180306D06F000803070026B
:10038200031DC52926306C020318D02918308316A4
:10039200A40018202821EC0A0319ED0ABC29EC015B
:1003A200ED0180306D06F00080307002031DDB2904
:1003B20027306C020318E6291C308316A40018208B
:1003C2002821EC0A0319ED0AD2290530FB000F306F
:1003D200FC00F130FD00FD0BEC29FC0BEC29FB0BC2
:1003E200EC2901308316A400182001308316A000E6
:1003F2000530A1003830A20096200B30FB002630D9
:10040200FC005D30FD00FD0B042AFC0B042AFB0BF3
:0A041200042A000000004B290D2A07
:1004BC00203084004A3083120313F0001330EA001A
:0804CC000230EB0035210800AD
:100426006834613473346934733475346E346534C6
:10043600743468342E3462346C346F3467347334F5
:1004460070346F3474342E3463346F346D34003446
:10045600543448344534203445344E34443400341E
:1004660020344D344534543448344F3444342034E5
:10047600303433342034283472346F3477342934AA
:02048600003440
:10048800483465346C346C346F34203457346F34EA
:0E04980072346C346434203430343134003427
:1004A6004D344534543448344F3444342034303495
:0404B60032340034A8
:02400E00782117
:00000001FF
