:02000000342B9F
:0400060000000800EE
:10000A00083083120313FC002330FD00FD0B0B287C
:06001A00FC0B0B2808009E
:10002000103083120313FD00FD0B1428000008009C
:1000300083120317A01B1E2886131F288617201B58
:100040002328061324280617A01A282886122928F0
:100050008616201A2D2806122E2806161218322867
:10006000061533280611861503208611A0193A2893
:1000700086133B28861720193F28061340280617A9
:10008000A0184428861245288616201849280612EA
:100090004A28061612184E2806154F2806118615EE
:1000A00003208611121C562805205728102008000E
:1000B00083120317A001A201A3011030A400043091
:1000C000230203188828F03003138800031724093B
:1000D000831603138800032003200F3083120805C2
:1000E000F00070080317A100700803198228220885
:1000F000A000210803198028A10CA113A00A7928C7
:100100000430A300A40D24100430A207A30A5F2822
:060110002008F0000800C9
:0E011600033083120313FD00FD0B8F28080039
:10012400A4288030831203179D00B728C0309D0097
:10013400B72894309D00B728D4309D00B72880306C
:100144009D00B728831203171D08013A0319932849
:100154001D08023A031998281D08033A03199B281D
:100164001D08043A03199E28A1281E03F0001D0847
:10017400F00770089D0012147008A00018200317DF
:0E01840012101F08A000182003171214080004
:10019200831603178C1CCF280000C92883121D0860
:1001A2008D001E088C0083168C130C150B08F000B2
:1001B2008B1355308D00AA308D008C14F01BE32870
:0A01C2008B13E4288B170C110800C2
:1001CC008312031712101D08A00018200317121415
:0201DC00080019
:1001DE00582070089D000F3003130805F000031916
:0E01EE00FA288B20F22803171D08F0000800E5
:1001FC00831203171D088D0083168C130C148312A5
:06020C000C08F0000800E0
:100212001A3083120313FC00F830FD00FD0B0F2986
:08022200FC0B0F29000008008D
:10022A00092103179D018316031366088312031716
:10023A009E00C9200921013003179D00831603136C
:10024A006708831203179E00C92009210230031789
:10025A009D00831603136808831203179E00C920A2
:10026A000921033003179D008316031369088312BB
:08027A0003179E00C9200800D3
:10028200092103179D01FE20700893000921013006
:1002920003179D00FE207008940009210230031705
:1002A2009D00FE20700895000921033003179D0070
:0A02B200FE207008960009210800E4
:1002BC0083120313EF01EF2070080313EF00700893
:1002CC000319612999293130EF00D9293230EF0017
:1002DC00D9293330EF00D9293430EF00D929353002
:1002EC00EF00D9293630EF00D9293730EF00D92962
:1002FC003830EF00D9293930EF00D9294130EF00DF
:10030C00D9294230EF00D9294330EF00D9294430A4
:10031C00EF00D9292A30EF00D9293030EF00D92944
:10032C002330EF00D9296F08013A031969296F08A6
:10033C00023A03196C296F08033A03196F296F08E5
:10034C00053A031972296F08063A031975296F08C3
:10035C00073A031978296F08093A03197B296F08A2
:10036C000A3A03197E296F080B3A031981296F0881
:10037C00043A031984296F08083A031987296F086E
:10038C000C3A03198A296F08103A03198D296F0842
:10039C000D3A031990296F080E3A031993296F0827
:1003AC000F3A031996292F08E63E84006F08800047
:1003BC00023003179D00063003132F0703179E000E
:1003CC0003132F08E63E8400000803179F009220B9
:0A03DC000313AF0A0319B00A08006A
:0E03E6008312031711088A0010088200080015
:1003F4000C2A80308312031799001F2AC0309900F9
:100404001F2A943099001F2AD43099001F2A803063
:1004140099001F2A831203171908013A0319FB29AB
:100424001908023A0319002A1908033A0319032A7E
:100434001908043A0319062A092A1A03F0001908AC
:10044400F007700899007008A00018200317121014
:100454009C011C081B07840000080319392A1C0886
:100464001B07840000089D00E6209C0A2B2A121416
:0204740008007E
:10047600013083120317A0001820013003179900DA
:1004860002309A0031309B00FA210330FB008A309B
:10049600FC005530FD00FD0B4E2AFC0B4E2AFB0BD3
:1004A6004E2A000000000313AF01B0015E2183163F
:1004B60066082A3A031D602A3B2A5E2183166708CE
:1004C6002A3A031D672A3B2A5E21831668082A3AC0
:1004D600031D6E2A3B2A5E21831669082A3A031DEC
:1004E600752A3B2A5E2183166A082A3A031D7C2A4E
:1004F6003B2A6A08233A031DA72A15214121033006
:10050600FB008A30FC005530FD00FD0B882AFC0BF1
:10051600882AFB0B882A0000000002300317990086
:1005260005309A0026309B00FA210830FB009D30EA
:10053600FC000530FD00FD0B9E2AFC0B9E2AFB0BE2
:100546009E2A00000000C22A831203170130A00071
:10055600182001300317990007309A0020309B00BD
:10056600FA210630FB001330FC00AD30FD00FD0B18
:10057600BA2AFC0BBA2AFB0BBA2A000000000800B4
:1005860083160313861106110612861206138613A6
:10059600831286110611861306138612061205208B
:1005A60005200520861606168615032086110520C9
:1005B6008615032086110520861503208611052041
:1005C600061286150320861105208615032086113E
:1005D60086128617861503208611052086130616B1
:1005E600861503208611061286150320861105201E
:1005F600861503208611061686150320861105200A
:100606000612861503208611861706178616061605
:0E061600861503208611052003171214080014
:10062400033083120313FB008A30FC005530FD00B5
:10063400FD0B1A2BFC0B1A2BFB0B1A2B00000000D2
:020644000800AC
:0A064600FF3083160313880008003C
:10065000F3218A110A128000840A900A0319910A70
:08066000F003031D282B080024
:1006680032260730831603139F0485012323C322F0
:10067800412103171308FF3A031D672B1408FF3A9B
:10068800031D672B1508FF3A031D672B1608FF3A51
:10069800031D672B9D0132309E00C92009210130BE
:1006A80003179D0035309E00C92009210230031729
:1006B8009D0038309E00C9200921033003179D0092
:1006C80030309E00C920412101300317A0001820B6
:1006D8000C300317A00018200330FB008A30FC0000
:1006E8005530FD00FD0B762BFC0B762BFB0B762B88
:1006F8000000000001300317990002309A00BB3057
:100708009B00FA210230990003309A00AE309B001A
:10071800FA211030FB003930FC000D30FD00FD0BD4
:10072800932BFC0B932BFB0B932B00000000013049
:10073800A0001820031797019801831203130514CA
:10074800851101300317A000182002300317990003
:1007580004309A00DB309B00FA210313AF01B0018B
:100768005E21831666082A3A031D952D01308312EF
:100778000317A000182001300317990004309A00CD
:10078800CF309B00FA210313AF01B0015E2183161D
:1007980066082A3A031DD12BBA2B5E2183166708F7
:1007A8002A3A031DD82BBA2B5E21831668082A3AE9
:1007B800031DDF2BBA2B5E21831669082A3A031D15
:1007C800E62BBA2B5E2183166A082A3A031DED2B05
:1007D800BA2B6608323A031D092C6708333A031D01
:1007E800092C6808343A031D092C6908353A031D99
:1007F800092C6A08353A031D092C5E2183166B08FB
:10080800233A031D092C3B22A12B831203178030A6
:100818001806F00080307002031D142C03301702F4
:100828000318FF2C83160313660883120317130695
:10083800031DFF2C8316031367088312031714067E
:10084800031DFF2C8316031368088312031715066C
:10085800031DFF2C8316031369088312031716065A
:10086800031DFF2C831603136A08233A031DFF2C6C
:100878008312051D602C051103179701980101309B
:10088800A000182001300317990002309A00BB30ED
:100898009B00FA211030FB003930FC000D30FD00C0
:1008A800FD0B542CFC0B542CFB0B542C00000000AB
:1008B8000130A0001820A12B01300317A000182038
:1008C80001300317990002309A005D309B00FA212D
:1008D8000230990002309A004F309B00FA219701AC
:1008E80098010313051005151F30FB007130FC003B
:1008F8001E30FD00FD0B7E2CFC0B7E2CFB0B7E2C92
:10090800000001300317A0001820023003179900D7
:1009180002309A004F309B00FA210313AF01B00157
:1009280080303006F00080307002031D9D2C0330AB
:100938002F020318A82C1C300317A000182012231C
:10094800AF0A0319B00A942C0330FB008A30FC006C
:100958005530FD00FD0BAE2CFC0BAE2CFB0BAE2C6A
:1009680000000000AF01B00180303006F000803098
:100978007002031DC12C05302F020318CC2C18302F
:100988000317A00018201223AF0A0319B00AB82CC5
:100998000330FB008A30FC005530FD00FD0BD22CE3
:1009A800FC0BD22CFB0BD22C00000000AF01B001D5
:1009B80080303006F00080307002031DE52C0230D4
:1009C8002F020318F02C1C300317A0001820122344
:1009D800AF0A0319B00ADC2C0B30FB002630FC00F0
:1009E8005D30FD00FD0BF62CFC0BF62CFB0BF62CFA
:1009F800000000001D2D83120317970A0319980A97
:100A08000130A000182001300317990003309A0024
:100A180040309B00FA210B30FB002630FC005D3093
:100A2800FD00FD0B152DFC0B152DFB0B152D0000E6
:100A38000000031780301806F00080307002031D94
:100A4800272D03301702031C952D031305110510DC
:100A5800851580306E06F00080307002031D362D3B
:100A680003306D0203188C2D01300317A0001820E5
:100A78000330FB008A30FC005530FD00FD0B422D91
:100A8800FC0B422DFB0B422D000000000130031728
:100A9800990003309A00A0309B00FA210330FB0034
:100AA8008A30FC005530FD00FD0B582DFC0B582DED
:100AB800FB0B582D000000000130A0001820033067
:100AC800FB008A30FC005530FD00FD0B692DFC0B46
:100AD800692DFB0B692D00000000013003179900F8
:100AE80003309A00A0309B00FA210630FB00133037
:100AF800FC00AD30FD00FD0B7F2DFC0B7F2DFB0BAB
:100B08007F2D000000000313ED0A0319EE0A2D2DB6
:100B1800023003179700003098000313ED01EE012F
:060B2800A12BA12B962D6C
:100C6400203084004D3083120313F0009C300317AE
:100C74009000053091002823A03084000E30F0004D
:100C84002130031790000630910028236D30840032
:100C94000230F0002F300317900006309100282313
:100CA400AE3084003830F000E9300317900005308E
:060CB40091002823080056
:0C0B38004534523452344F3452340034EF
:100B44002A342A3444346F346E3465342A342A34D3
:020B540000346B
:040B56000034003433
:100B5A0045344E3454344534523420344E344534BA
:0E0B6A005734203443344F344434453400347F
:100B780041344334433445345334533420344434B7
:0E0B880045344E34493445344434003400348E
:100B960020342A342A34573445344C3443344F34C1
:0C0BA6004D3445342A342A342034003405
:100BB200413443344334453453345334203447347A
:100BC200523441344E344534543445344434003480
:100BD2002034423479342034483441345334493453
:0A0BE2005434483441342034003408
:100BEC002E342E342034503452344F345434453453
:100BFC00433454344534443420342E342E340034AD
:080C0C00003400340034003410
:100C140045344E34543445345234203443344F3400
:080C240044344534003400346F
:100C2C002034503452344534533453342034273424
:060C3C002A3427340034C5
:100C420020342A3420345734413452344E34493417
:0C0C52004E34473420342A34203400345F
:040C5E00003400342A
:02400E004A2F37
:00000001FF
