:040000008A15002835
:0C000600000000000000000000000800E6
:0E001200533083120313FD00FD0B0D28080070
:10002000243083120313FC00B530FD00FD0B1628AD
:0A003000FC0B162800000000080079
:10003A0083160313D31B24288312861126288312BE
:10004A0086158316531B2C28831206112E28831219
:10005A0006158316D31A342883128610362883127B
:10006A0086148316531A3C28831206103E288312DC
:10007A0006146F184228061643280612861603200D
:10008A0086128316D3194C28831286114E2883129E
:10009A00861583165319542883120611562883127B
:1000AA0006158316D3185C28831286105E288312DD
:1000BA00861483165318642883120610662883123E
:1000CA0006146F186A2806166B280612861603206D
:0E00DA0086126F1C722810207328092008005F
:0800E800FA1FF21300300800BA
:1000F000831203136F1083165208D3001D206F1450
:020100000800F5
:10010200FB14FB1F8B28FF30F300F200F100F0001C
:08011200FA0DF20CFF300800A9
:10011A007B15FB1F97280130F300F201F101F00172
:08012A00FA0DF20CFF30080091
:0E013200F201F101F001F801F30100300800C4
:10014000B228803083160313CE00C528C030CE00FD
:10015000C5289430CE00C528D430CE00C5288030C4
:10016000CE00C528831603134E08013A0319A128AF
:100170004E08023A0319A6284E08033A0319A92883
:100180004E08043A0319AC28AF284F03F0004E087C
:10019000F0077008CE007008D3001D206F10831682
:1001A000D10151085007840000080319E0285108C4
:1001B000500784000008D20078208316D10AD12885
:0601C00083126F14080019
:1001C600A0017208031DF8287108F2007008F100FA
:1001D600F001A0157208031DF8287108F200F1015C
:1001E600A01120167208031906292008F302031D20
:1001F600031C0A290310F21B0E29F00DF10DF20D56
:10020600F30BFE280A290130FC009920112902303F
:0E021600FC008D2011290430FC00742008002B
:0E0224008316031338088A003708820008008A
:1002320083120313F801F9011030FC00710DF80D5F
:10024200F90D7408F8027508031C750FF9020318FA
:1002520031297408F80775080318750FF907031098
:0A026200F00DF10DFC0B1F29080040
:10026C00243083120313FD00FD0B3A290000080013
:10027C007C187429FC1845297C1993293E29A00166
:10028C007208031D65297108F2007008F1007808E6
:10029C00F000F801A0157208031D65297108F20021
:1002AC007008F100F001A01120167208031D6529D9
:1002BC007108F200F101A0157208031987292008B2
:1002CC00F302031D031C8B290310F21B7429F80D78
:1002DC00F00DF10DF20DF30B6B298B297B1B701CB0
:1002EC008F29F81F8F29F00A0319F10A0319F20A52
:1002FC00031D8F29F20CF10CF00CF30A031993294E
:10030C008F290130FC00992096290230FC008D20A9
:10031C0096290430FC00742096290830FC008120BA
:04032C0000000800C5
:100330007B14FB1FA329F201FA1FFF30F200F1002A
:0A034000F000FA0DF20CFF30080087
:10034A0083120313FB01FC01F801730803191E2A27
:10035A00F2179E30F302F31BB5290319B5290E2AA9
:10036A00F309F30A08307302031CE329F300F80DBA
:10037A007008F8007108F0007208F100F201083004
:10038A007302031CE329F300F80D7008F8007108E2
:10039A00F000F10108307302031CE329F300F80DA1
:1003AA007008F800F00108307302031CE329F30017
:1003BA00F80DF8017308031D0310ED2973080319DA
:1003CA00ED290310F20CF10CF00CF80CF30BE629F2
:1003DA007B1B781CFB29031CFB29F80A0319F00A6A
:1003EA000319F10A0319F20AF21B1B2AFA1F1E2A21
:1003FA00F209F109F009F809F80A0319F00A0319D0
:10040A00F10A0319F20A1E2AF201F101F001F801B8
:10041A001E2A7B14FB1F212AF201FA1F212AF2004D
:10042A00F100F000F800FA0DF20C212A0130FC006C
:10043A00232A0030FC00232AFF30FC00FC080319A1
:10044A00272A98217208F3007108F2007008F10057
:06045A007808F000080024
:1004600083120313FB017308031D77080319872AFE
:1004700072087606FA007708F3077E30031C442AD8
:10048000F30203188A2A472AF302031C8D2A7208F2
:10049000F8007108FC007008FD00F817F61703104B
:1004A000F201F101F0011830A0007D1C612A7408EE
:1004B000F00775080318750FF10776080318760F13
:1004C000F207F20CF10CF00CF80CFC0CFD0C031014
:1004D000A00B552AF21B712AF80DF00DF10DF20D4B
:1004E000F3037B1B701C832AF81F832AF00A03196D
:1004F000F10A0319F20A031D832AF20CF10CF00C25
:10050000F30A03198A2AFA1FF21300308F2A0130E6
:1005100099208F2A023081208F2A04308D200000FC
:020520000800D1
:1005220083120313FB01FC01FA0173080319D02A99
:10053200F2178E30F302F31BA12A0319A12AD32A40
:10054200F309F30A08307302031CB62AF300F10D13
:100552007208F100F20108307302031CB62AF10D91
:10056200F1017308031D0310BE2A73080319BE2A82
:100572000310F20CF10CF30BB92A7B1B711CC82A75
:10058200031CC82AF10A0319F20AF21BDF2AFA1F16
:10059200E22AF209F109F10A0319F20AE22AF20146
:1005A200F101E22A7B14FB1FE52AF201FA1FE52A78
:1005B200FF30F200F100FA0DF20CE52A0130FC00E6
:1005C200E72A0030FC00E72AFF30FC00FC08031990
:0E05D200EB2A98217108F0007208F100080071
:1005E0008312031347088316CD001030F400273020
:1005F000F5004B08F0004C08F10019210A30F40016
:100600000030F50019217808F0007908F100303049
:10061000F00783164D088400700880008312470A93
:100620008316CD00E830F4000330F5004B08F000ED
:100630004C08F10019210A30F4000030F5001921AE
:100640007808F0007908F1003030F00783164D0883
:100650008400700880000230831247078316CD00A3
:100660006430F4000030F5004B08F0004C08F10055
:1006700019210A30F4000030F50019217808F00043
:100680007908F1003030F00783164D0884007008B7
:1006900080000330831247078316CD000A30F40030
:1006A0000030F5004B08F0004C08F10019210A3029
:1006B000F4000030F50019217808F0007908F10005
:1006C0003030F00783164D08840070088000043035
:1006D000831247078316CD000A30F4000030F5007E
:1006E0004B08F0004C08F10019217808F000790857
:1006F000F1003030F00783164D0884007008800048
:100700000230CE000230CF00831247088316D0009B
:04071000A02008001D
:1007140083120313FB01FA01F9018030F800F10C94
:10072400F00C031C9E2B7408F90775080318750F49
:10073400FA070318FB0A0310F01FA62B7408FA0724
:1007440075080318750FFB07FB0CFA0CF90CF80C71
:10075400031C912B7B08F3007A08F2007908F1005E
:060764007808F000080017
:10076A00831203137008F8007108F000F101F20116
:10077A00F301FB01FC019630F300FA017008F10065
:0C078A007808F000F801F201E3200800FC
:10079600DD2B803083160313CB00F02BC030CB004B
:1007A600F02B9430CB00F02BD430CB00F02B8030E4
:1007B600CB00F02B831603134B08013A0319CC2BFD
:1007C6004B08023A0319D12B4B08033A0319D42BD1
:1007D6004B08043A0319D72BDA2B4C03F0004B08CD
:1007E600F0077008CB0083126F1470088316D300CD
:1007F6001D206F1083164D08D3001D206F140800AE
:10080600831203137008F8007108F0007208F100F3
:100816007308F200F301FB01FC019E30F300FA01BC
:080826000230FC003E21080035
:10082E008312031348088316CD00E830F40003301A
:10083E00F5004B08F0004C08F10019213030F0079C
:10084E0083164D088400700880008312480A8316B0
:10085E00CD006430F4000030F5004B08F0004C0879
:10086E00F10019210A30F4000030F5001921780842
:10087E00F0007908F1003030F00783164D0884003F
:10088E00700880000330831248078316CD000A30AB
:10089E00F4000030F5004B08F0004C08F10019216F
:1008AE000A30F4000030F50019217808F0007908BC
:1008BE00F1003030F00783164D0884007008800078
:1008CE000230CE000230CF00831248088316D000CB
:0408DE00A02008004E
:1008E200831203139F01C0309F0483161F179F17A3
:1008F2004B08F000F00D7010F00D7010F00D70103C
:10090200700883129F041F1436211F151F1D8B2C84
:100912000000872C1F101E08F100F00183161E082C
:08092200F0040030F1040800AC
:10092A008316031386120612061086100611861104
:10093A0083128612061286110611861006101020DE
:10094A001020102086140614861603208612102002
:10095A00861603208612102086160320861210207F
:10096A000610861603208612102086160320861289
:10097A008610861586160320861210208611061404
:10098A008616032086120610861603208612102069
:10099A008616032086120614861603208612102055
:1009AA000610861603208612861506158614061466
:0C09BA0086160320861210206F1408001F
:1009C600103083120313F4002730F5008316450810
:1009D600F0004608F1001921700871040319072D6B
:1009E6002E088316CB001030F4002730F50045089A
:1009F600F0004608F10019213030F00783164B0845
:100A06008400700880000C2D83122E08840020308C
:100A1600800083122E0A8316CB00E830F4000330E0
:100A2600F5004508F0004608F10019210A30F400E7
:100A36000030F50019217808F0007908F10030300F
:100A4600F00783164B08840070088000023083127A
:100A56002E078316CB006430F4000030F5004508FD
:100A6600F0004608F10019210A30F4000030F500C4
:100A760019217808F0007908F1003030F007831664
:100A86004B08840070088000043083122E078316FA
:100A9600CB000A30F4000030F5004508F0004608A7
:100AA600F10019210A30F4000030F5001921780808
:100AB600F0007908F1003030F00783164B08840007
:100AC600700880000230CE000130CF0083122E085D
:100AD6008316D000A0201030F4002730F5008316CE
:100AE6004308F0004408F100192170087104031945
:100AF600902D2F088316CB001030F4002730F50018
:100B06004308F0004408F10019213030F00783163D
:100B16004B08840070088000952D83122F088400EE
:100B26002030800083122F0A8316CB00E830F400B1
:100B36000330F5004308F0004408F10019210A309B
:100B4600F4000030F50019217808F0007908F1006A
:100B56003030F00783164B0884007008800002309E
:100B660083122F078316CB006430F4000030F500A3
:100B76004308F0004408F10019210A30F40000305F
:100B8600F50019217808F0007908F1003030F007F7
:100B960083164B08840070088000043083122F07E8
:100BA6008316CB000A30F4000030F5004308F0004D
:100BB6004408F10019210A30F4000030F50019212B
:100BC6007808F0007908F1003030F00783164B08FA
:100BD6008400700880000230CE000A30CF008312F5
:0A0BE6002F088316D000A02008009D
:100BF00012218A110A128000840AB70A0319B80A5E
:080C0000F003031DF82D0800AC
:100CCC00213084004B3083120313F0000430831660
:100CDC00B7000630B800F825A03084001730F000BB
:0E0CEC004F308316B7000630B800F825080018
:101000008A1166268A1583120313860140308316DF
:1010100086000D3085000F308800013087000330D6
:10102000831290000C108F018E01EE018A1195241D
:101030008A1510309F0083169F0107309C000C30EA
:10104000D3008A111D208A1501308316BF0000309D
:10105000C000BD01BE010130C1000030C2008316D6
:10106000CB018A1171248A157008C7007108C80065
:10107000C901CA014708F0004808F1004908F20018
:101080004A08F3008A1103248A15B630F400F330BD
:10109000F5006030F6008430F7008A1130228A159E
:1010A0008A11A5218A1570088316C7007108C80027
:1010B0007208C9007308CA007008C5007108C6002C
:1010C0000930F4000030F5008A118A238A150530B2
:1010D000F4000030F5008A1119218A15803070075C
:1010E0008316C30071080318013E0C3EC400023091
:1010F000CB008A1171248A157008B9007108BA00F2
:1011000083128F018E010D30FB00AF30FC00B63032
:10111000FD00FD0B8928FC0B8928FB0B89280000AA
:101120000E088316BB00BC0183120F08F100F0010A
:1011300083163B08F0073C080318013EF1077008CE
:10114000BB007108BC008A11B5238A15AC30F400CD
:101150001C30F5000230F6008030F7008A11302292
:101160008A158A1191228A1570088316BB007108AE
:10117000BC008312081CC628003083164006031DDD
:10118000C32800303F060319C628FE288316BF0176
:10119000C0010130BD000030BE000130C100003090
:1011A000C2008312871407118711071201308316BA
:1011B000D3008A111D208A150C308316D3008A11A2
:1011C0001D208A1502308316CE000130CF00593021
:1011D000D0008A11A0208A1501308316CE0002307B
:1011E000CF004930D0008A11A0208A1583163B0811
:1011F000CB003C08CC008A11F0228A158312881893
:101200001A29071601308316CE000130CF006A304C
:10121000D0008A11A0208A1501308316BF0000304B
:10122000C0000130BD000030BE000130C100003000
:10123000C2001A298312081D2729003083163E0692
:10124000031D242900303D06031927298329831211
:1012500087100715871107128316BD01BE010130E3
:10126000BF000030C0000130C1000030C2000130BA
:10127000D3008A111D208A150C308316D3008A11E1
:101280001D208A1501308316CE000330CF00303088
:10129000D0008A11A0208A1502308316CE000930B2
:1012A000CF003E30D0008A11A0208A15023083166C
:1012B000CB000630CC005630CD008A11CB238A15E6
:1012C00083163908F0003A08F1008A11B5238A150F
:1012D0001030F4003B30F5001E30F6008130F7008E
:1012E0008A1130228A158A1191228A157008EC0021
:1012F0007108ED0070088316CB007108CC008A11CC
:1013000017248A1583298312881D9029003083169B
:101310004206031D8D290030410603199029E12959
:101320008312871007118715071201308316BD003D
:101330000030BE000130BF000030C000C101C2015A
:101340000130D3008A111D208A150C308316D3007A
:101350008A111D208A1501308316CE000430CF007B
:101360002130D0008A11A0208A1502308316CB00CC
:101370000630CC00DF30CD008A11CB238A15023035
:101380008316CB000F30CC00DF30CD008A11CB2389
:101390008A1502308316CB000730CC004330CD00D5
:1013A0008A11CB238A1502308316CB001030CC0073
:1013B0004630CD008A11CB238A158A11E3248A1581
:0613C000E1292F28E229BB
:100C0800543445344D3450344534523441345434DA
:0A0C180055345234453420340034C2
:020C2200B134EB
:020C2400A034FA
:100C260056344F344C3454344134473445342034EC
:0C0C36004D3445345434453452340034FD
:100C42002F344D34413458343A34353430345634F8
:020C520000346C
:020C5400AB34BF
:020C5600A634C2
:100C58004634453452345134553441344E34433497
:100C6800593420344D3445345434453452340034E6
:100C780020342034203420342034203448347A344A
:100C8800203420342F34363435344B3448347A34D5
:020C9800003426
:040C9A00703400347E
:0C0C9E003034303430342E343034003424
:0A0CAA00303430342E34303400347E
:0C0CB4002034303430343034303400341C
:0C0CC0003034303430342E343034003402
:02400E004A2F37
:00000001FF
