:020000001628C0
:0E0006008312031321088A00200882000800DC
:1000140003208A110A128000840AA00A0319A10A83
:08002400F003031D0A28080087
:10002C008316031386018501FF3083128600063088
:10003C00FB001330FC00AD30FD00FD0B2328FC0B46
:10004C002328FB0B23280000000086010630FB0050
:10005C001330FC00AD30FD00FD0B3228FC0B3228B8
:10006C00FB0B322800000000013086000330FB003F
:10007C008A30FC005530FD00FD0B4228FC0B422859
:10008C00FB0B422800000000033086000330FB000D
:10009C008A30FC005530FD00FD0B5228FC0B522819
:1000AC00FB0B52280000000006150330FB008A30C1
:1000BC00FC005530FD00FD0B6128FC0B6128FB0B8F
:1000CC006128000000000F3086000330FB008A30EE
:1000DC00FC005530FD00FD0B7128FC0B7128FB0B4F
:1000EC007128000000001F3086000330FB008A30AE
:1000FC00FC005530FD00FD0B8128FC0B8128FB0B0F
:10010C0081280000000086160330FB008A30FC00BA
:10011C005530FD00FD0B9028FC0B9028FB0B902814
:10012C00000000007F3086000330FB008A30FC00AA
:10013C005530FD00FD0BA028FC0BA028FB0BA028C4
:08014C00000000001A28A92898
:02400E00782117
:00000001FF
