:0200000058287E
:10000600A53083120313FD00FD0B07280000000036
:020016000800E0
:0E0018008312031323088A00220882000800C6
:100026000C208A110A128000840AA20A0319A30A64
:08003600F003031D132808006C
:10003E0083120313A9012508F1000130F0007108A5
:10004E0003192D28F00D7010FF3E27287008A80008
:10005E002408840070080005F10071080130031DAA
:10006E000030F0002708F006031955282608003C3A
:10007E000318452803200320A6033D2824088400E6
:10008E0028080005F10071080130031D0030F00052
:10009E002708F00603195528FF30A9002908F0009B
:0200AE00080048
:1000B00083120313A001A101FF308316850086017E
:1000C000831286010530A400A5010130A60001308D
:1000D000A7001F20700803197028061486107228C4
:1000E00006108614851C77280615861179280611B6
:1000F00086150530A4000230A5000130A6000130AD
:10010000A7001F20700803198728061688280612E2
:10011000851D8C2886168D2886120530A400043093
:10012000A5000130A6000130A7001F2070080319A8
:10013000C62800302106031D9F2801302006031D1C
:10014000B3280613A001A1010330FB008A30FC0094
:100150005530FD00FD0BAA28FC0BAA28FB0BAA2892
:1001600000000000C62806170130A0000030A100E2
:100170000330FB008A30FC005530FD00FD0BBE282B
:10018000FC0BBE28FB0BBE28000000006228C7281D
:02400E00782117
:00000001FF
